{
  "_format": "hh3-artifact-1",
  "contractName": "Create2Factory",
  "sourceName": "contracts/Create2Factory.sol",
  "abi": [
    {
      "anonymous": false,
      "inputs": [
        {
          "indexed": true,
          "internalType": "address",
          "name": "deployedAddress",
          "type": "address"
        },
        {
          "indexed": true,
          "internalType": "bytes32",
          "name": "salt",
          "type": "bytes32"
        }
      ],
      "name": "ContractDeployed",
      "type": "event"
    },
    {
      "inputs": [
        {
          "internalType": "bytes",
          "name": "bytecode",
          "type": "bytes"
        },
        {
          "internalType": "bytes32",
          "name": "salt",
          "type": "bytes32"
        }
      ],
      "name": "computeAddress",
      "outputs": [
        {
          "internalType": "address",
          "name": "computedAddress",
          "type": "address"
        }
      ],
      "stateMutability": "view",
      "type": "function"
    },
    {
      "inputs": [
        {
          "internalType": "bytes32",
          "name": "bytecodeHash",
          "type": "bytes32"
        },
        {
          "internalType": "bytes32",
          "name": "salt",
          "type": "bytes32"
        }
      ],
      "name": "computeAddressFromHash",
      "outputs": [
        {
          "internalType": "address",
          "name": "computedAddress",
          "type": "address"
        }
      ],
      "stateMutability": "view",
      "type": "function"
    },
    {
      "inputs": [
        {
          "internalType": "bytes",
          "name": "bytecode",
          "type": "bytes"
        },
        {
          "internalType": "bytes32",
          "name": "salt",
          "type": "bytes32"
        }
      ],
      "name": "deploy",
      "outputs": [
        {
          "internalType": "address",
          "name": "deployedAddress",
          "type": "address"
        }
      ],
      "stateMutability": "nonpayable",
      "type": "function"
    }
  ],
  "bytecode": "0x6080604052348015600e575f5ffd5b506102fc8061001c5f395ff3fe608060405234801561000f575f5ffd5b506004361061003f575f3560e01c80633e4b9f7a146100435780634af63f0214610072578063bb783ace14610085575b5f5ffd5b6100566100513660046101b8565b610098565b6040516001600160a01b03909116815260200160405180910390f35b6100566100803660046101b8565b6100dc565b61005661009336600461026d565b610187565b5f5f60ff60f81b308486805190602001206040516020016100bc949392919061028d565b60408051601f198184030181529190528051602090910120949350505050565b5f818351602085015ff590506001600160a01b03811661014c5760405162461bcd60e51b815260206004820152602160248201527f43726561746532466163746f72793a206465706c6f796d656e74206661696c656044820152601960fa1b606482015260840160405180910390fd5b60405182906001600160a01b038316907fb085ff794f342ed78acc7791d067e28a931e614b52476c0305795e1ff0a154bc905f90a392915050565b5f5f60ff60f81b3084866040516020016100bc949392919061028d565b634e487b7160e01b5f52604160045260245ffd5b5f5f604083850312156101c9575f5ffd5b823567ffffffffffffffff8111156101df575f5ffd5b8301601f810185136101ef575f5ffd5b803567ffffffffffffffff811115610209576102096101a4565b604051601f8201601f19908116603f0116810167ffffffffffffffff81118282101715610238576102386101a4565b60405281815282820160200187101561024f575f5ffd5b816020840160208301375f6020928201830152969401359450505050565b5f5f6040838503121561027e575f5ffd5b50508035926020909101359150565b6001600160f81b031994909416845260609290921b6bffffffffffffffffffffffff19166001840152601583015260358201526055019056fea2646970667358221220927b734c98dc7e7220e7b37812c69458793c9b45ee785e711951166c92b97d6364736f6c634300081c0033",
  "linkReferences": {},
  "deployedLinkReferences": {},
  "immutableReferences": {},
  "inputSourceName": "contracts/Create2Factory.sol",
  "buildInfoId": "7dc513f67692c6d134fe4f674f1596e8ab590e75"
}