{
  "_format": "hh3-artifact-1",
  "contractName": "NanoPool",
  "sourceName": "contracts/NanoPool.sol",
  "abi": [
    {
      "inputs": [],
      "stateMutability": "nonpayable",
      "type": "constructor"
    },
    {
      "anonymous": false,
      "inputs": [
        {
          "indexed": true,
          "internalType": "uint256",
          "name": "poolId",
          "type": "uint256"
        },
        {
          "indexed": true,
          "internalType": "address",
          "name": "contributor",
          "type": "address"
        },
        {
          "indexed": false,
          "internalType": "uint256",
          "name": "amount",
          "type": "uint256"
        },
        {
          "indexed": false,
          "internalType": "uint256",
          "name": "newTotal",
          "type": "uint256"
        }
      ],
      "name": "ContributionMade",
      "type": "event"
    },
    {
      "anonymous": false,
      "inputs": [
        {
          "indexed": true,
          "internalType": "uint256",
          "name": "poolId",
          "type": "uint256"
        },
        {
          "indexed": true,
          "internalType": "address",
          "name": "beneficiary",
          "type": "address"
        },
        {
          "indexed": false,
          "internalType": "uint256",
          "name": "amount",
          "type": "uint256"
        }
      ],
      "name": "FundsDisbursed",
      "type": "event"
    },
    {
      "anonymous": false,
      "inputs": [
        {
          "indexed": true,
          "internalType": "uint256",
          "name": "poolId",
          "type": "uint256"
        },
        {
          "indexed": false,
          "internalType": "uint256",
          "name": "totalAmount",
          "type": "uint256"
        }
      ],
      "name": "GoalAchieved",
      "type": "event"
    },
    {
      "anonymous": false,
      "inputs": [
        {
          "indexed": true,
          "internalType": "address",
          "name": "previousOwner",
          "type": "address"
        },
        {
          "indexed": true,
          "internalType": "address",
          "name": "newOwner",
          "type": "address"
        }
      ],
      "name": "OwnershipTransferred",
      "type": "event"
    },
    {
      "anonymous": false,
      "inputs": [
        {
          "indexed": true,
          "internalType": "uint256",
          "name": "poolId",
          "type": "uint256"
        },
        {
          "indexed": true,
          "internalType": "address",
          "name": "initiator",
          "type": "address"
        },
        {
          "indexed": true,
          "internalType": "address",
          "name": "beneficiary",
          "type": "address"
        },
        {
          "indexed": false,
          "internalType": "string",
          "name": "description",
          "type": "string"
        },
        {
          "indexed": false,
          "internalType": "uint256",
          "name": "goalAmount",
          "type": "uint256"
        },
        {
          "indexed": false,
          "internalType": "uint256",
          "name": "deadlineTimestamp",
          "type": "uint256"
        }
      ],
      "name": "PoolCreated",
      "type": "event"
    },
    {
      "anonymous": false,
      "inputs": [
        {
          "indexed": true,
          "internalType": "uint256",
          "name": "poolId",
          "type": "uint256"
        },
        {
          "indexed": true,
          "internalType": "address",
          "name": "contributor",
          "type": "address"
        },
        {
          "indexed": false,
          "internalType": "uint256",
          "name": "amount",
          "type": "uint256"
        }
      ],
      "name": "RefundClaimed",
      "type": "event"
    },
    {
      "inputs": [
        {
          "internalType": "uint256",
          "name": "_poolId",
          "type": "uint256"
        }
      ],
      "name": "claimRefund",
      "outputs": [],
      "stateMutability": "nonpayable",
      "type": "function"
    },
    {
      "inputs": [
        {
          "internalType": "uint256",
          "name": "_poolId",
          "type": "uint256"
        }
      ],
      "name": "contribute",
      "outputs": [],
      "stateMutability": "payable",
      "type": "function"
    },
    {
      "inputs": [
        {
          "internalType": "address",
          "name": "_beneficiary",
          "type": "address"
        },
        {
          "internalType": "string",
          "name": "_description",
          "type": "string"
        },
        {
          "internalType": "uint256",
          "name": "_goalAmount",
          "type": "uint256"
        },
        {
          "internalType": "uint256",
          "name": "_deadlineTimestamp",
          "type": "uint256"
        }
      ],
      "name": "createPool",
      "outputs": [
        {
          "internalType": "uint256",
          "name": "poolId",
          "type": "uint256"
        }
      ],
      "stateMutability": "nonpayable",
      "type": "function"
    },
    {
      "inputs": [
        {
          "internalType": "uint256",
          "name": "_poolId",
          "type": "uint256"
        }
      ],
      "name": "disburseFunds",
      "outputs": [],
      "stateMutability": "nonpayable",
      "type": "function"
    },
    {
      "inputs": [
        {
          "internalType": "uint256",
          "name": "_poolId",
          "type": "uint256"
        },
        {
          "internalType": "address",
          "name": "_contributor",
          "type": "address"
        }
      ],
      "name": "getContribution",
      "outputs": [
        {
          "internalType": "uint256",
          "name": "contribution",
          "type": "uint256"
        }
      ],
      "stateMutability": "view",
      "type": "function"
    },
    {
      "inputs": [
        {
          "internalType": "uint256",
          "name": "_poolId",
          "type": "uint256"
        }
      ],
      "name": "getContributors",
      "outputs": [
        {
          "internalType": "address[]",
          "name": "",
          "type": "address[]"
        }
      ],
      "stateMutability": "view",
      "type": "function"
    },
    {
      "inputs": [
        {
          "internalType": "uint256",
          "name": "_poolId",
          "type": "uint256"
        }
      ],
      "name": "getPoolDetails",
      "outputs": [
        {
          "internalType": "address",
          "name": "initiator",
          "type": "address"
        },
        {
          "internalType": "address",
          "name": "beneficiary",
          "type": "address"
        },
        {
          "internalType": "string",
          "name": "description",
          "type": "string"
        },
        {
          "internalType": "uint256",
          "name": "goalAmount",
          "type": "uint256"
        },
        {
          "internalType": "uint256",
          "name": "currentAmount",
          "type": "uint256"
        },
        {
          "internalType": "uint256",
          "name": "deadlineTimestamp",
          "type": "uint256"
        },
        {
          "internalType": "bool",
          "name": "goalAchieved",
          "type": "bool"
        },
        {
          "internalType": "bool",
          "name": "fundsDisbursed",
          "type": "bool"
        }
      ],
      "stateMutability": "view",
      "type": "function"
    },
    {
      "inputs": [],
      "name": "owner",
      "outputs": [
        {
          "internalType": "address",
          "name": "",
          "type": "address"
        }
      ],
      "stateMutability": "view",
      "type": "function"
    },
    {
      "inputs": [
        {
          "internalType": "uint256",
          "name": "",
          "type": "uint256"
        }
      ],
      "name": "pools",
      "outputs": [
        {
          "internalType": "address",
          "name": "initiator",
          "type": "address"
        },
        {
          "internalType": "address",
          "name": "beneficiary",
          "type": "address"
        },
        {
          "internalType": "string",
          "name": "description",
          "type": "string"
        },
        {
          "internalType": "uint256",
          "name": "goalAmount",
          "type": "uint256"
        },
        {
          "internalType": "uint256",
          "name": "currentAmount",
          "type": "uint256"
        },
        {
          "internalType": "uint256",
          "name": "deadlineTimestamp",
          "type": "uint256"
        },
        {
          "internalType": "bool",
          "name": "goalAchieved",
          "type": "bool"
        },
        {
          "internalType": "bool",
          "name": "fundsDisbursed",
          "type": "bool"
        }
      ],
      "stateMutability": "view",
      "type": "function"
    },
    {
      "inputs": [],
      "name": "renounceOwnership",
      "outputs": [],
      "stateMutability": "nonpayable",
      "type": "function"
    },
    {
      "inputs": [
        {
          "internalType": "address",
          "name": "newOwner",
          "type": "address"
        }
      ],
      "name": "transferOwnership",
      "outputs": [],
      "stateMutability": "nonpayable",
      "type": "function"
    }
  ],
  "bytecode": "0x6080604052348015600e575f5ffd5b5060015f55601a336023565b60016002556074565b600180546001600160a01b038381166001600160a01b0319831681179093556040519116919082907f8be0079c531659141344cd1fd0a4f28419497f9722a3daafe3b4186f6b6457e0905f90a35050565b6114ca806100815f395ff3fe60806040526004361061009a575f3560e01c8063ac4afa3811610062578063ac4afa381461015c578063b8764c391461018f578063c1cbbca7146101ae578063cc212a48146101c1578063e081dbf9146101e0578063f2fde38b146101ff575f5ffd5b80633c1ab00f1461009e578063438dded0146100d35780635b7baf6414610100578063715018a6146101215780638da5cb5b14610135575b5f5ffd5b3480156100a9575f5ffd5b506100bd6100b83660046110bd565b61021e565b6040516100ca91906110d4565b60405180910390f35b3480156100de575f5ffd5b506100f26100ed36600461113a565b6102c2565b6040519081526020016100ca565b34801561010b575f5ffd5b5061011f61011a3660046110bd565b6104ca565b005b34801561012c575f5ffd5b5061011f6106ff565b348015610140575f5ffd5b506001546040516001600160a01b0390911681526020016100ca565b348015610167575f5ffd5b5061017b6101763660046110bd565b610712565b6040516100ca9897969594939291906111c9565b34801561019a575f5ffd5b5061017b6101a93660046110bd565b6107ec565b61011f6101bc3660046110bd565b610919565b3480156101cc575f5ffd5b5061011f6101db3660046110bd565b610b9e565b3480156101eb575f5ffd5b506100f26101fa36600461124e565b610e76565b34801561020a575f5ffd5b5061011f610219366004611278565b610ece565b5f8181526003602052604090208054606091906001600160a01b031661025f5760405162461bcd60e51b815260040161025690611298565b60405180910390fd5b806008018054806020026020016040519081016040528092919081815260200182805480156102b557602002820191905f5260205f20905b81546001600160a01b03168152600190910190602001808311610297575b5050505050915050919050565b5f6001600160a01b0386166103245760405162461bcd60e51b815260206004820152602260248201527f42656e65666963696172792063616e6e6f74206265207a65726f206164647265604482015261737360f01b6064820152608401610256565b5f83116103815760405162461bcd60e51b815260206004820152602560248201527f476f616c20616d6f756e74206d7573742062652067726561746572207468616e604482015264207a65726f60d81b6064820152608401610256565b4282116103d05760405162461bcd60e51b815260206004820152601e60248201527f446561646c696e65206d75737420626520696e207468652066757475726500006044820152606401610256565b60028054905f6103df836112d9565b909155505f8181526003602052604090208054336001600160a01b03199182161782556001820180549091166001600160a01b038a161790559091506002810161042a868883611389565b50600381018490555f600482018190556005820184905560068201805461ffff19169055604080519182526020820190819052905161046d916008840191611046565b50866001600160a01b0316336001600160a01b0316837fcf8cdcb259fc7c0233ec6b510dfaf541d9d259396ecd6c8deb0746658d736eac898989896040516104b89493929190611443565b60405180910390a45095945050505050565b6104d2610f44565b5f81815260036020526040902080546001600160a01b03166105065760405162461bcd60e51b815260040161025690611298565b806005015442101561055a5760405162461bcd60e51b815260206004820152601c60248201527f506f6f6c20646561646c696e65206e6f742079657420706173736564000000006044820152606401610256565b600681015460ff16156105c45760405162461bcd60e51b815260206004820152602c60248201527f506f6f6c20676f616c207761732061636869657665642c206e6f20726566756e60448201526b647320617661696c61626c6560a01b6064820152608401610256565b335f9081526007820160205260409020548061061a5760405162461bcd60e51b8152602060048201526015602482015274139bc818dbdb9d1c9a589d5d1a5bdb88199bdd5b99605a1b6044820152606401610256565b335f8181526007840160205260408082208290555190919083908381818185875af1925050503d805f811461066a576040519150601f19603f3d011682016040523d82523d5f602084013e61066f565b606091505b50509050806106b95760405162461bcd60e51b81526020600482015260166024820152751499599d5b99081d1c985b9cd9995c8819985a5b195960521b6044820152606401610256565b604051828152339085907ff3f402280ef0a7905e124aa621b65eaeb2725c343e8b36d398ed78c29daf285c9060200160405180910390a35050506106fc60015f55565b50565b610707610f9b565b6107105f610ff5565b565b60036020525f90815260409020805460018201546002830180546001600160a01b0393841694929093169261074690611305565b80601f016020809104026020016040519081016040528092919081815260200182805461077290611305565b80156107bd5780601f10610794576101008083540402835291602001916107bd565b820191905f5260205f20905b8154815290600101906020018083116107a057829003601f168201915b505050506003830154600484015460058501546006909501549394919390925060ff8082169161010090041688565b5f8181526003602052604081208054829160609183918291829182918291906001600160a01b03166108305760405162461bcd60e51b815260040161025690611298565b8054600182015460038301546004840154600585015460068601546002870180546001600160a01b039788169790961695909493929160ff808216926101009092041690869061087f90611305565b80601f01602080910402602001604051908101604052809291908181526020018280546108ab90611305565b80156108f65780601f106108cd576101008083540402835291602001916108f6565b820191905f5260205f20905b8154815290600101906020018083116108d957829003601f168201915b505050505095509850985098509850985098509850985050919395975091939597565b610921610f44565b5f81815260036020526040902080546001600160a01b03166109555760405162461bcd60e51b815260040161025690611298565b806005015442106109a85760405162461bcd60e51b815260206004820152601860248201527f506f6f6c20646561646c696e65206861732070617373656400000000000000006044820152606401610256565b600681015460ff16156109fd5760405162461bcd60e51b815260206004820152601a60248201527f506f6f6c20676f616c20616c72656164792061636869657665640000000000006044820152606401610256565b5f3411610a625760405162461bcd60e51b815260206004820152602d60248201527f436f6e747269627574696f6e20616d6f756e74206d757374206265206772656160448201526c746572207468616e207a65726f60981b6064820152608401610256565b335f9081526007820160205260408120549003610aa0576008810180546001810182555f91825260209091200180546001600160a01b031916331790555b335f90815260078201602052604081208054349290610ac0908490611481565b9250508190555034816004015f828254610ada9190611481565b90915550506004810154604080513481526020810192909252339184917ff9b7589b7a8d939b9da5dae90770378fe5fd7802be5d66432e85bedbdbfbcb7a910160405180910390a38060030154816004015410158015610b3f5750600681015460ff16155b15610b945760068101805460ff19166001179055600481015460405183917ff3c4ffe52045e622854cff8fa0cda4caede6c1b3732030451a025d3cca0f468291610b8b91815260200190565b60405180910390a25b506106fc60015f55565b610ba6610f44565b5f81815260036020526040902080546001600160a01b0316610bda5760405162461bcd60e51b815260040161025690611298565b80546001600160a01b0316331480610bfc57506001546001600160a01b031633145b610c6e5760405162461bcd60e51b815260206004820152603860248201527f4f6e6c7920706f6f6c20696e69746961746f72206f7220636f6e74726163742060448201527f6f776e65722063616e2064697362757273652066756e647300000000000000006064820152608401610256565b600681015460ff16610cbb5760405162461bcd60e51b8152602060048201526016602482015275141bdbdb0819dbd85b081b9bdd081858da1a595d995960521b6044820152606401610256565b6006810154610100900460ff1615610d155760405162461bcd60e51b815260206004820152601760248201527f46756e647320616c7265616479206469736275727365640000000000000000006044820152606401610256565b8060050154421015610d695760405162461bcd60e51b815260206004820152601c60248201527f506f6f6c20646561646c696e65206e6f742079657420706173736564000000006044820152606401610256565b60068101805461ff001916610100179055600181015460048201546040515f926001600160a01b031691908381818185875af1925050503d805f8114610dca576040519150601f19603f3d011682016040523d82523d5f602084013e610dcf565b606091505b5050905080610e205760405162461bcd60e51b815260206004820152601e60248201527f5472616e7366657220746f2062656e6566696369617279206661696c656400006044820152606401610256565b600182015460048301546040519081526001600160a01b039091169084907feb2cd132972ac2f1b1b2806265483bfbe1a6c39df51e7a855c258ecd12fd1c449060200160405180910390a350506106fc60015f55565b5f82815260036020526040812080546001600160a01b0316610eaa5760405162461bcd60e51b815260040161025690611298565b6001600160a01b0383165f9081526007909101602052604090205490505b92915050565b610ed6610f9b565b6001600160a01b038116610f3b5760405162461bcd60e51b815260206004820152602660248201527f4f776e61626c653a206e6577206f776e657220697320746865207a65726f206160448201526564647265737360d01b6064820152608401610256565b6106fc81610ff5565b60025f5403610f955760405162461bcd60e51b815260206004820152601f60248201527f5265656e7472616e637947756172643a207265656e7472616e742063616c6c006044820152606401610256565b60025f55565b6001546001600160a01b031633146107105760405162461bcd60e51b815260206004820181905260248201527f4f776e61626c653a2063616c6c6572206973206e6f7420746865206f776e65726044820152606401610256565b600180546001600160a01b038381166001600160a01b0319831681179093556040519116919082907f8be0079c531659141344cd1fd0a4f28419497f9722a3daafe3b4186f6b6457e0905f90a35050565b828054828255905f5260205f20908101928215611099579160200282015b8281111561109957825182546001600160a01b0319166001600160a01b03909116178255602090920191600190910190611064565b506110a59291506110a9565b5090565b5b808211156110a5575f81556001016110aa565b5f602082840312156110cd575f5ffd5b5035919050565b602080825282518282018190525f918401906040840190835b818110156111145783516001600160a01b03168352602093840193909201916001016110ed565b509095945050505050565b80356001600160a01b0381168114611135575f5ffd5b919050565b5f5f5f5f5f6080868803121561114e575f5ffd5b6111578661111f565b9450602086013567ffffffffffffffff811115611172575f5ffd5b8601601f81018813611182575f5ffd5b803567ffffffffffffffff811115611198575f5ffd5b8860208284010111156111a9575f5ffd5b959860209190910197509495604081013595606090910135945092505050565b60018060a01b038916815260018060a01b038816602082015261010060408201525f8751806101008401528060208a0161012085015e5f6101208285010152610120601f19601f8301168401019150508660608301528560808301528460a083015261123960c083018515159052565b82151560e08301529998505050505050505050565b5f5f6040838503121561125f575f5ffd5b8235915061126f6020840161111f565b90509250929050565b5f60208284031215611288575f5ffd5b6112918261111f565b9392505050565b602080825260139082015272141bdbdb08191bd95cc81b9bdd08195e1a5cdd606a1b604082015260600190565b634e487b7160e01b5f52601160045260245ffd5b5f600182016112ea576112ea6112c5565b5060010190565b634e487b7160e01b5f52604160045260245ffd5b600181811c9082168061131957607f821691505b60208210810361133757634e487b7160e01b5f52602260045260245ffd5b50919050565b601f82111561138457805f5260205f20601f840160051c810160208510156113625750805b601f840160051c820191505b81811015611381575f815560010161136e565b50505b505050565b67ffffffffffffffff8311156113a1576113a16112f1565b6113b5836113af8354611305565b8361133d565b5f601f8411600181146113e6575f85156113cf5750838201355b5f19600387901b1c1916600186901b178355611381565b5f83815260208120601f198716915b8281101561141557868501358255602094850194600190920191016113f5565b5086821015611431575f1960f88860031b161c19848701351681555b505060018560011b0183555050505050565b60608152836060820152838560808301375f608085830101525f6080601f19601f870116830101905083602083015282604083015295945050505050565b80820180821115610ec857610ec86112c556fea2646970667358221220c22bae50221379e25011460aa239ba7a058026bcbe91bd5b6c8053df71ce52ab64736f6c634300081c0033",
  "linkReferences": {},
  "deployedLinkReferences": {},
  "immutableReferences": {},
  "inputSourceName": "contracts/NanoPool.sol",
  "buildInfoId": "dc1c54938061cef6c47ce89cd016725627e5132e"
}